{
  "address": "0xB4fd180882dE3C0CFC3643d26Ad0F0e4E9928F74",
  "abi": [
    {
      "anonymous": false,
      "inputs": [
        {
          "indexed": false,
          "internalType": "address",
          "name": "addr",
          "type": "address"
        }
      ],
      "name": "Deploy",
      "type": "event"
    },
    {
      "inputs": [
        {
          "internalType": "uint256",
          "name": "_salt",
          "type": "uint256"
        }
      ],
      "name": "deploy",
      "outputs": [],
      "stateMutability": "nonpayable",
      "type": "function"
    },
    {
      "inputs": [
        {
          "internalType": "bytes",
          "name": "bytecode",
          "type": "bytes"
        },
        {
          "internalType": "uint256",
          "name": "_salt",
          "type": "uint256"
        }
      ],
      "name": "getAddress",
      "outputs": [
        {
          "internalType": "address",
          "name": "",
          "type": "address"
        }
      ],
      "stateMutability": "view",
      "type": "function"
    },
    {
      "inputs": [
        {
          "internalType": "address",
          "name": "_owner",
          "type": "address"
        }
      ],
      "name": "getBytecode",
      "outputs": [
        {
          "internalType": "bytes",
          "name": "",
          "type": "bytes"
        }
      ],
      "stateMutability": "pure",
      "type": "function"
    }
  ],
  "transactionHash": "0x8e29aea1adef86d04b9e43ea0d71108882a2f4a2c350a34e5143c9a00696c018",
  "args": [],
  "numDeployments": 1,
  "solcInputHash": "cdee00eaf9d4a4a0e77a25531707d5c1",
  "bytecode": "0x608060405234801561001057600080fd5b50610500806100206000396000f3fe608060405234801561001057600080fd5b50600436106100415760003560e01c80630c6008af1461004657806394ca2cb51461006f578063a5e38751146100f1575b600080fd5b61005961005436600461020d565b610106565b6040516100669190610261565b60405180910390f35b6100d961007d3660046102aa565b8151602092830120604080516001600160f81b0319818601523060601b6bffffffffffffffffffffffff191660218201526035810193909352605580840192909252805180840390920182526075909201909152805191012090565b6040516001600160a01b039091168152602001610066565b6101046100ff36600461035f565b610179565b005b606060006040518060200161011a90610200565b601f1982820381018352601f9091011660408181526001600160a01b038616602083015291925082910160408051601f19818403018152908290526101629291602001610378565b604051602081830303815290604052915050919050565b60008160001b3360405161018c90610200565b6001600160a01b0390911681526020018190604051809103906000f59050801580156101bc573d6000803e3d6000fd5b506040516001600160a01b03821681529091507f55ea6c6b31543d8e2ec6a72f71a79c0f4b72ed0d4757172b043d8f4f4cd848489060200160405180910390a15050565b610123806103a883390190565b60006020828403121561021f57600080fd5b81356001600160a01b038116811461023657600080fd5b9392505050565b60005b83811015610258578181015183820152602001610240565b50506000910152565b602081526000825180602084015261028081604085016020870161023d565b601f01601f19169190910160400192915050565b634e487b7160e01b600052604160045260246000fd5b600080604083850312156102bd57600080fd5b823567ffffffffffffffff808211156102d557600080fd5b818501915085601f8301126102e957600080fd5b8135818111156102fb576102fb610294565b604051601f8201601f19908116603f0116810190838211818310171561032357610323610294565b8160405282815288602084870101111561033c57600080fd5b826020860160208301376000602093820184015298969091013596505050505050565b60006020828403121561037157600080fd5b5035919050565b6000835161038a81846020880161023d565b83519083019061039e81836020880161023d565b0194935050505056fe608060405234801561001057600080fd5b5060405161012338038061012383398101604081905261002f91610054565b600080546001600160a01b0319166001600160a01b0392909216919091179055610084565b60006020828403121561006657600080fd5b81516001600160a01b038116811461007d57600080fd5b9392505050565b6091806100926000396000f3fe6080604052348015600f57600080fd5b506004361060285760003560e01c80638da5cb5b14602d575b600080fd5b600054603f906001600160a01b031681565b6040516001600160a01b03909116815260200160405180910390f3fea2646970667358221220793512cbb88a93e4f3f7a7be0e11fb88fc559a6a1ce2acbc384a59f0875381cc64736f6c63430008110033a26469706673582212201c6864c3b4b1dcaad46fd0e35b0cdf3b063cf1b4c3803529602d3f4050f247a264736f6c63430008110033",
  "devdoc": {
    "kind": "dev",
    "methods": {},
    "version": 1
  },
  "userdoc": {
    "kind": "user",
    "methods": {},
    "version": 1
  },
  "storageLayout": {
    "storage": [],
    "types": null
  }
}