{
  "address": "0xc8a9F9b48Dab2EAdE12e4D6a935730c4026AD963",
  "abi": [
    {
      "inputs": [
        {
          "internalType": "address",
          "name": "_owner",
          "type": "address"
        }
      ],
      "stateMutability": "nonpayable",
      "type": "constructor"
    },
    {
      "inputs": [],
      "name": "AlreadyExists",
      "type": "error"
    },
    {
      "inputs": [],
      "name": "InvalidOwner",
      "type": "error"
    },
    {
      "inputs": [],
      "name": "InvalidRecipient",
      "type": "error"
    },
    {
      "inputs": [],
      "name": "InvalidSender",
      "type": "error"
    },
    {
      "inputs": [],
      "name": "NotFound",
      "type": "error"
    },
    {
      "inputs": [],
      "name": "Unauthorized",
      "type": "error"
    },
    {
      "inputs": [],
      "name": "UnsafeRecipient",
      "type": "error"
    },
    {
      "anonymous": false,
      "inputs": [
        {
          "indexed": true,
          "internalType": "address",
          "name": "owner",
          "type": "address"
        },
        {
          "indexed": true,
          "internalType": "address",
          "name": "spender",
          "type": "address"
        },
        {
          "indexed": false,
          "internalType": "uint256",
          "name": "amount",
          "type": "uint256"
        }
      ],
      "name": "Approval",
      "type": "event"
    },
    {
      "anonymous": false,
      "inputs": [
        {
          "indexed": true,
          "internalType": "address",
          "name": "owner",
          "type": "address"
        },
        {
          "indexed": true,
          "internalType": "address",
          "name": "operator",
          "type": "address"
        },
        {
          "indexed": false,
          "internalType": "bool",
          "name": "approved",
          "type": "bool"
        }
      ],
      "name": "ApprovalForAll",
      "type": "event"
    },
    {
      "anonymous": false,
      "inputs": [
        {
          "indexed": true,
          "internalType": "address",
          "name": "from",
          "type": "address"
        },
        {
          "indexed": true,
          "internalType": "address",
          "name": "to",
          "type": "address"
        },
        {
          "indexed": false,
          "internalType": "uint256",
          "name": "amount",
          "type": "uint256"
        }
      ],
      "name": "ERC20Transfer",
      "type": "event"
    },
    {
      "anonymous": false,
      "inputs": [
        {
          "indexed": true,
          "internalType": "address",
          "name": "owner",
          "type": "address"
        },
        {
          "indexed": true,
          "internalType": "address",
          "name": "spender",
          "type": "address"
        },
        {
          "indexed": true,
          "internalType": "uint256",
          "name": "id",
          "type": "uint256"
        }
      ],
      "name": "ERC721Approval",
      "type": "event"
    },
    {
      "anonymous": false,
      "inputs": [
        {
          "indexed": true,
          "internalType": "address",
          "name": "user",
          "type": "address"
        },
        {
          "indexed": true,
          "internalType": "address",
          "name": "newOwner",
          "type": "address"
        }
      ],
      "name": "OwnershipTransferred",
      "type": "event"
    },
    {
      "anonymous": false,
      "inputs": [
        {
          "indexed": true,
          "internalType": "address",
          "name": "from",
          "type": "address"
        },
        {
          "indexed": true,
          "internalType": "address",
          "name": "to",
          "type": "address"
        },
        {
          "indexed": true,
          "internalType": "uint256",
          "name": "id",
          "type": "uint256"
        }
      ],
      "name": "Transfer",
      "type": "event"
    },
    {
      "inputs": [
        {
          "internalType": "address",
          "name": "",
          "type": "address"
        },
        {
          "internalType": "address",
          "name": "",
          "type": "address"
        }
      ],
      "name": "allowance",
      "outputs": [
        {
          "internalType": "uint256",
          "name": "",
          "type": "uint256"
        }
      ],
      "stateMutability": "view",
      "type": "function"
    },
    {
      "inputs": [
        {
          "internalType": "address",
          "name": "spender",
          "type": "address"
        },
        {
          "internalType": "uint256",
          "name": "amountOrId",
          "type": "uint256"
        }
      ],
      "name": "approve",
      "outputs": [
        {
          "internalType": "bool",
          "name": "",
          "type": "bool"
        }
      ],
      "stateMutability": "nonpayable",
      "type": "function"
    },
    {
      "inputs": [
        {
          "internalType": "address",
          "name": "",
          "type": "address"
        }
      ],
      "name": "balanceOf",
      "outputs": [
        {
          "internalType": "uint256",
          "name": "",
          "type": "uint256"
        }
      ],
      "stateMutability": "view",
      "type": "function"
    },
    {
      "inputs": [],
      "name": "baseTokenURI",
      "outputs": [
        {
          "internalType": "string",
          "name": "",
          "type": "string"
        }
      ],
      "stateMutability": "view",
      "type": "function"
    },
    {
      "inputs": [],
      "name": "dataURI",
      "outputs": [
        {
          "internalType": "string",
          "name": "",
          "type": "string"
        }
      ],
      "stateMutability": "view",
      "type": "function"
    },
    {
      "inputs": [],
      "name": "decimals",
      "outputs": [
        {
          "internalType": "uint8",
          "name": "",
          "type": "uint8"
        }
      ],
      "stateMutability": "view",
      "type": "function"
    },
    {
      "inputs": [
        {
          "internalType": "uint256",
          "name": "",
          "type": "uint256"
        }
      ],
      "name": "getApproved",
      "outputs": [
        {
          "internalType": "address",
          "name": "",
          "type": "address"
        }
      ],
      "stateMutability": "view",
      "type": "function"
    },
    {
      "inputs": [
        {
          "internalType": "address",
          "name": "",
          "type": "address"
        },
        {
          "internalType": "address",
          "name": "",
          "type": "address"
        }
      ],
      "name": "isApprovedForAll",
      "outputs": [
        {
          "internalType": "bool",
          "name": "",
          "type": "bool"
        }
      ],
      "stateMutability": "view",
      "type": "function"
    },
    {
      "inputs": [],
      "name": "minted",
      "outputs": [
        {
          "internalType": "uint256",
          "name": "",
          "type": "uint256"
        }
      ],
      "stateMutability": "view",
      "type": "function"
    },
    {
      "inputs": [],
      "name": "name",
      "outputs": [
        {
          "internalType": "string",
          "name": "",
          "type": "string"
        }
      ],
      "stateMutability": "view",
      "type": "function"
    },
    {
      "inputs": [],
      "name": "owner",
      "outputs": [
        {
          "internalType": "address",
          "name": "",
          "type": "address"
        }
      ],
      "stateMutability": "view",
      "type": "function"
    },
    {
      "inputs": [
        {
          "internalType": "uint256",
          "name": "id",
          "type": "uint256"
        }
      ],
      "name": "ownerOf",
      "outputs": [
        {
          "internalType": "address",
          "name": "owner",
          "type": "address"
        }
      ],
      "stateMutability": "view",
      "type": "function"
    },
    {
      "inputs": [],
      "name": "revokeOwnership",
      "outputs": [],
      "stateMutability": "nonpayable",
      "type": "function"
    },
    {
      "inputs": [
        {
          "internalType": "address",
          "name": "from",
          "type": "address"
        },
        {
          "internalType": "address",
          "name": "to",
          "type": "address"
        },
        {
          "internalType": "uint256",
          "name": "id",
          "type": "uint256"
        }
      ],
      "name": "safeTransferFrom",
      "outputs": [],
      "stateMutability": "nonpayable",
      "type": "function"
    },
    {
      "inputs": [
        {
          "internalType": "address",
          "name": "from",
          "type": "address"
        },
        {
          "internalType": "address",
          "name": "to",
          "type": "address"
        },
        {
          "internalType": "uint256",
          "name": "id",
          "type": "uint256"
        },
        {
          "internalType": "bytes",
          "name": "data",
          "type": "bytes"
        }
      ],
      "name": "safeTransferFrom",
      "outputs": [],
      "stateMutability": "nonpayable",
      "type": "function"
    },
    {
      "inputs": [
        {
          "internalType": "address",
          "name": "operator",
          "type": "address"
        },
        {
          "internalType": "bool",
          "name": "approved",
          "type": "bool"
        }
      ],
      "name": "setApprovalForAll",
      "outputs": [],
      "stateMutability": "nonpayable",
      "type": "function"
    },
    {
      "inputs": [
        {
          "internalType": "string",
          "name": "_dataURI",
          "type": "string"
        }
      ],
      "name": "setDataURI",
      "outputs": [],
      "stateMutability": "nonpayable",
      "type": "function"
    },
    {
      "inputs": [
        {
          "internalType": "string",
          "name": "_name",
          "type": "string"
        },
        {
          "internalType": "string",
          "name": "_symbol",
          "type": "string"
        }
      ],
      "name": "setNameSymbol",
      "outputs": [],
      "stateMutability": "nonpayable",
      "type": "function"
    },
    {
      "inputs": [
        {
          "internalType": "string",
          "name": "_tokenURI",
          "type": "string"
        }
      ],
      "name": "setTokenURI",
      "outputs": [],
      "stateMutability": "nonpayable",
      "type": "function"
    },
    {
      "inputs": [
        {
          "internalType": "address",
          "name": "target",
          "type": "address"
        },
        {
          "internalType": "bool",
          "name": "state",
          "type": "bool"
        }
      ],
      "name": "setWhitelist",
      "outputs": [],
      "stateMutability": "nonpayable",
      "type": "function"
    },
    {
      "inputs": [],
      "name": "symbol",
      "outputs": [
        {
          "internalType": "string",
          "name": "",
          "type": "string"
        }
      ],
      "stateMutability": "view",
      "type": "function"
    },
    {
      "inputs": [
        {
          "internalType": "uint256",
          "name": "id",
          "type": "uint256"
        }
      ],
      "name": "tokenURI",
      "outputs": [
        {
          "internalType": "string",
          "name": "",
          "type": "string"
        }
      ],
      "stateMutability": "view",
      "type": "function"
    },
    {
      "inputs": [],
      "name": "totalSupply",
      "outputs": [
        {
          "internalType": "uint256",
          "name": "",
          "type": "uint256"
        }
      ],
      "stateMutability": "view",
      "type": "function"
    },
    {
      "inputs": [
        {
          "internalType": "address",
          "name": "to",
          "type": "address"
        },
        {
          "internalType": "uint256",
          "name": "amount",
          "type": "uint256"
        }
      ],
      "name": "transfer",
      "outputs": [
        {
          "internalType": "bool",
          "name": "",
          "type": "bool"
        }
      ],
      "stateMutability": "nonpayable",
      "type": "function"
    },
    {
      "inputs": [
        {
          "internalType": "address",
          "name": "from",
          "type": "address"
        },
        {
          "internalType": "address",
          "name": "to",
          "type": "address"
        },
        {
          "internalType": "uint256",
          "name": "amountOrId",
          "type": "uint256"
        }
      ],
      "name": "transferFrom",
      "outputs": [],
      "stateMutability": "nonpayable",
      "type": "function"
    },
    {
      "inputs": [
        {
          "internalType": "address",
          "name": "_owner",
          "type": "address"
        }
      ],
      "name": "transferOwnership",
      "outputs": [],
      "stateMutability": "nonpayable",
      "type": "function"
    },
    {
      "inputs": [
        {
          "internalType": "address",
          "name": "",
          "type": "address"
        }
      ],
      "name": "whitelist",
      "outputs": [
        {
          "internalType": "bool",
          "name": "",
          "type": "bool"
        }
      ],
      "stateMutability": "view",
      "type": "function"
    }
  ],
  "transactionHash": "0xcc1493df6309d0dae7f2f966f37298c7bd44f3ff54d3e4cf0d1ffa69389dca44",
  "args": [
    "0x23971521AB578f4bf58e1C6E35fEb289AcB66add"
  ],
  "numDeployments": 1,
  "solcInputHash": "cdee00eaf9d4a4a0e77a25531707d5c1",
  "bytecode": "0x60c06040523480156200001157600080fd5b50604051620024d2380380620024d283398101604081905262000034916200016d565b6040518060400160405280600781526020016650616e646f726160c81b8152506040518060400160405280600781526020016650414e444f524160c81b8152506012612710848060006001600160a01b0316816001600160a01b031603620000af576040516349e27cff60e01b815260040160405180910390fd5b600080546001600160a01b0319166001600160a01b03831690811782556040519091907f8be0079c531659141344cd1fd0a4f28419497f9722a3daafe3b4186f6b6457e0908290a350600162000106868262000244565b50600262000115858262000244565b5060ff831660808190526200012c90600a62000425565b62000138908362000436565b60a0525050506001600160a01b03909216600090815260046020526040902069021e19e0c9bab2400000905550620004509050565b6000602082840312156200018057600080fd5b81516001600160a01b03811681146200019857600080fd5b9392505050565b634e487b7160e01b600052604160045260246000fd5b600181811c90821680620001ca57607f821691505b602082108103620001eb57634e487b7160e01b600052602260045260246000fd5b50919050565b601f8211156200023f57600081815260208120601f850160051c810160208610156200021a5750805b601f850160051c820191505b818110156200023b5782815560010162000226565b5050505b505050565b81516001600160401b038111156200026057620002606200019f565b6200027881620002718454620001b5565b84620001f1565b602080601f831160018114620002b05760008415620002975750858301515b600019600386901b1c1916600185901b1785556200023b565b600085815260208120601f198616915b82811015620002e157888601518255948401946001909101908401620002c0565b5085821015620003005787850151600019600388901b60f8161c191681555b5050505050600190811b01905550565b634e487b7160e01b600052601160045260246000fd5b600181815b80851115620003675781600019048211156200034b576200034b62000310565b808516156200035957918102915b93841c93908002906200032b565b509250929050565b60008262000380575060016200041f565b816200038f575060006200041f565b8160018114620003a85760028114620003b357620003d3565b60019150506200041f565b60ff841115620003c757620003c762000310565b50506001821b6200041f565b5060208310610133831016604e8410600b8410161715620003f8575081810a6200041f565b62000404838362000326565b80600019048211156200041b576200041b62000310565b0290505b92915050565b60006200019860ff8416836200036f565b80820281158282048414176200041f576200041f62000310565b60805160a0516120556200047d600039600061023501526000818161029a015261117801526120556000f3fe608060405234801561001057600080fd5b50600436106101a95760003560e01c806370a08231116100f9578063c87b56dd11610097578063e0df5b6f11610071578063e0df5b6f14610400578063e985e9c514610413578063f28ca1dd14610441578063f2fde38b1461044957600080fd5b8063c87b56dd146103ba578063d547cfb7146103cd578063dd62ed3e146103d557600080fd5b80639b19251a116100d35780639b19251a1461035e578063a22cb46514610381578063a9059cbb14610394578063b88d4fde146103a757600080fd5b806370a08231146103235780638da5cb5b1461034357806395d89b411461035657600080fd5b80632b968958116101665780634f02c420116101405780634f02c420146102e1578063504334c2146102ea57806353d6fd59146102fd5780636352211e1461031057600080fd5b80632b9689581461028d578063313ce5671461029557806342842e0e146102ce57600080fd5b806306fdde03146101ae578063081812fc146101cc578063095ea7b31461020d57806318160ddd1461023057806318d217c31461026557806323b872dd1461027a575b600080fd5b6101b661045c565b6040516101c39190611740565b60405180910390f35b6101f56101da366004611773565b6006602052600090815260409020546001600160a01b031681565b6040516001600160a01b0390911681526020016101c3565b61022061021b3660046117a3565b6104ea565b60405190151581526020016101c3565b6102577f000000000000000000000000000000000000000000000000000000000000000081565b6040519081526020016101c3565b610278610273366004611870565b61063b565b005b6102786102883660046118ad565b610675565b6102786109fe565b6102bc7f000000000000000000000000000000000000000000000000000000000000000081565b60405160ff90911681526020016101c3565b6102786102dc3660046118ad565b610a64565b61025760035481565b6102786102f83660046118e9565b610b39565b61027861030b36600461194d565b610b6d565b6101f561031e366004611773565b610bc2565b610257610331366004611989565b60046020526000908152604090205481565b6000546101f5906001600160a01b031681565b6101b6610bfd565b61022061036c366004611989565b600b6020526000908152604090205460ff1681565b61027861038f36600461194d565b610c0a565b6102206103a23660046117a3565b610c76565b6102786103b53660046119a4565b610c8a565b6101b66103c8366004611773565b610d4d565b6101b6611085565b6102576103e3366004611a3f565b600560209081526000928352604080842090915290825290205481565b61027861040e366004611870565b611092565b610220610421366004611a3f565b600760209081526000928352604080842090915290825290205460ff1681565b6101b66110c8565b610278610457366004611989565b6110d5565b6001805461046990611a72565b80601f016020809104026020016040519081016040528092919081815260200182805461049590611a72565b80156104e25780601f106104b7576101008083540402835291602001916104e2565b820191906000526020600020905b8154815290600101906020018083116104c557829003601f168201915b505050505081565b600060035482111580156104fe5750600082115b156105d5576000828152600860205260409020546001600160a01b031633811480159061054f57506001600160a01b038116600090815260076020908152604080832033845290915290205460ff16155b1561056c576040516282b42960e81b815260040160405180910390fd5b60008381526006602090815260409182902080546001600160a01b0319166001600160a01b038881169182179092559251868152908416917f8c5be1e5ebec7d5bd14f71427d1e84f3dd0314c0f7b2291e5b200ac8c7c3b925910160405180910390a350610631565b3360008181526005602090815260408083206001600160a01b03881680855290835292819020869055518581529192917f8c5be1e5ebec7d5bd14f71427d1e84f3dd0314c0f7b2291e5b200ac8c7c3b925910160405180910390a35b5060015b92915050565b6000546001600160a01b03163314610665576040516282b42960e81b815260040160405180910390fd5b600c6106718282611afa565b5050565b600354811161098f576000818152600860205260409020546001600160a01b038481169116146106b857604051636edaef2f60e11b815260040160405180910390fd5b6001600160a01b0382166106df57604051634e46966960e11b815260040160405180910390fd5b336001600160a01b0384161480159061071c57506001600160a01b038316600090815260076020908152604080832033845290915290205460ff16155b801561073f57506000818152600660205260409020546001600160a01b03163314155b1561075c576040516282b42960e81b815260040160405180910390fd5b610764611171565b6001600160a01b0384166000908152600460205260408120805490919061078c908490611bd0565b9091555061079a9050611171565b6001600160a01b03808416600081815260046020908152604080832080549096019095558582526008815284822080546001600160a01b03199081169094179055600681528482208054909316909255918616825260099052908120805461080490600190611bd0565b8154811061081457610814611be3565b60009182526020808320909101546001600160a01b0387168352600982526040808420868552600a9093529092205481549293508392811061085857610858611be3565b60009182526020808320909101929092556001600160a01b038616815260099091526040902080548061088d5761088d611bf9565b600082815260208082208301600019908101839055909201909255838252600a8152604080832054848452818420556001600160a01b0386168084526009835290832080546001818101835582865293852001869055925290546108f19190611bd0565b6000838152600a602052604080822092909255905183916001600160a01b0380871692908816917fddf252ad1be2c89b69c2b068fc378daa952ba7f163c4a11628f55a4df523b3ef91a4826001600160a01b0316846001600160a01b03167fe59fdd36d0d223c0c7d996db7ad796880f45e1936cb0bb7ac102e7082e031487610978611171565b60405190815260200160405180910390a350505050565b6001600160a01b038316600090815260056020908152604080832033845290915290205460001981146109eb576109c68282611bd0565b6001600160a01b03851660009081526005602090815260408083203384529091529020555b6109f68484846111a3565b50505b505050565b6000546001600160a01b03163314610a28576040516282b42960e81b815260040160405180910390fd5b600080546001600160a01b031916815560405133907f8be0079c531659141344cd1fd0a4f28419497f9722a3daafe3b4186f6b6457e0908390a3565b610a6f838383610675565b6001600160a01b0382163b15801590610b1b5750604051630a85bd0160e11b8082523360048301526001600160a01b03858116602484015260448301849052608060648401526000608484015290919084169063150b7a029060a4016020604051808303816000875af1158015610aea573d6000803e3d6000fd5b505050506040513d601f19601f82011682018060405250810190610b0e9190611c0f565b6001600160e01b03191614155b156109f957604051633da6393160e01b815260040160405180910390fd5b6000546001600160a01b03163314610b63576040516282b42960e81b815260040160405180910390fd5b6106718282611365565b6000546001600160a01b03163314610b97576040516282b42960e81b815260040160405180910390fd5b6001600160a01b03919091166000908152600b60205260409020805460ff1916911515919091179055565b6000818152600860205260409020546001600160a01b031680610bf85760405163c5723b5160e01b815260040160405180910390fd5b919050565b6002805461046990611a72565b3360008181526007602090815260408083206001600160a01b03871680855290835292819020805460ff191686151590811790915590519081529192917f17307eab39ab6107e8899845ad3d59bd9653f200f220920489ca2b5937696c31910160405180910390a35050565b6000610c833384846111a3565b9392505050565b610c95858585610675565b6001600160a01b0384163b15801590610d2f5750604051630a85bd0160e11b808252906001600160a01b0386169063150b7a0290610cdf9033908a90899089908990600401611c39565b6020604051808303816000875af1158015610cfe573d6000803e3d6000fd5b505050506040513d601f19601f82011682018060405250810190610d229190611c0f565b6001600160e01b03191614155b156109f657604051633da6393160e01b815260040160405180910390fd5b60606000600d8054610d5e90611a72565b90501115610d9857600d610d718361137e565b604051602001610d82929190611c8d565b6040516020818303038152906040529050919050565b600082604051602001610dad91815260200190565b6040516020818303038152906040528051906020012060f81c905060608060648360ff1611610e1b5760405180604001604052806005815260200164189733b4b360d91b81525091506040518060400160405280600581526020016423b932b2b760d91b8152509050610f56565b60a08360ff1611610e6a5760405180604001604052806005815260200164191733b4b360d91b815250915060405180604001604052806004815260200163426c756560e01b8152509050610f56565b60d28360ff1611610ebb5760405180604001604052806005815260200164199733b4b360d91b815250915060405180604001604052806006815260200165507572706c6560d01b8152509050610f56565b60f08360ff1611610f0c57604051806040016040528060058152602001641a1733b4b360d91b8152509150604051806040016040528060068152602001654f72616e676560d01b8152509050610f56565b60ff8360ff1611610f5657604051806040016040528060058152602001641a9733b4b360d91b81525091506040518060400160405280600381526020016214995960ea1b81525090505b6000610f618661137e565b604051602001610f719190611d14565b60408051601f1981840301815290829052610f8e91602001611d50565b604051602081830303815290604052600c84604051602001610fb1929190611c8d565b60408051601f1981840301815290829052610fcf9291602001611e29565b6040516020818303038152906040529050600082604051602001610ff39190611e4f565b60408051601f1981840301815282820182526004835263227d5d7d60e01b602084810191909152915190935061102d918591859101611e29565b60408051601f198184030181529082905261104c918390602001611e29565b60408051601f198184030181529082905261106991602001611eac565b6040516020818303038152906040529650505050505050919050565b600d805461046990611a72565b6000546001600160a01b031633146110bc576040516282b42960e81b815260040160405180910390fd5b600d6106718282611afa565b600c805461046990611a72565b6000546001600160a01b031633146110ff576040516282b42960e81b815260040160405180910390fd5b6001600160a01b038116611126576040516349e27cff60e01b815260040160405180910390fd5b600080546001600160a01b0319166001600160a01b0383169081178255604051909133917f8be0079c531659141344cd1fd0a4f28419497f9722a3daafe3b4186f6b6457e09190a350565b600061119e7f0000000000000000000000000000000000000000000000000000000000000000600a611fd5565b905090565b6000806111ae611171565b6001600160a01b038087166000818152600460205260408082208054948a16835290822054928252939450919290918691906111ea8386611bd0565b90915550506001600160a01b03808716600090815260046020908152604080832080548a019055928a168252600b9052205460ff16611286576001600160a01b038716600090815260046020526040812054611247908590611fe4565b6112518585611fe4565b61125b9190611bd0565b905060005b818110156112835761127189611411565b8061127b81612006565b915050611260565b50505b6001600160a01b0386166000908152600b602052604090205460ff1661130b5760006112b28483611fe4565b6001600160a01b0388166000908152600460205260409020546112d6908690611fe4565b6112e09190611bd0565b905060005b81811015611308576112f688611539565b8061130081612006565b9150506112e5565b50505b856001600160a01b0316876001600160a01b03167fe59fdd36d0d223c0c7d996db7ad796880f45e1936cb0bb7ac102e7082e0314878760405161135091815260200190565b60405180910390a35060019695505050505050565b60016113718382611afa565b5060026109f98282611afa565b6060600061138b83611644565b600101905060008167ffffffffffffffff8111156113ab576113ab6117cd565b6040519080825280601f01601f1916602001820160405280156113d5576020820181803683370190505b5090508181016020015b600019016f181899199a1a9b1b9c1cb0b131b232b360811b600a86061a8153600a85049450846113df57509392505050565b6001600160a01b03811661143857604051636edaef2f60e11b815260040160405180910390fd5b6001600160a01b0381166000908152600960205260408120805461145e90600190611bd0565b8154811061146e5761146e611be3565b9060005260206000200154905060096000836001600160a01b03166001600160a01b031681526020019081526020016000208054806114af576114af611bf9565b600082815260208082208301600019908101839055909201909255828252600a815260408083208390556008825280832080546001600160a01b031990811690915560069092528083208054909216909155518291906001600160a01b038516907fddf252ad1be2c89b69c2b068fc378daa952ba7f163c4a11628f55a4df523b3ef908390a45050565b6001600160a01b03811661156057604051634e46966960e11b815260040160405180910390fd5b60038054600101908190556000818152600860205260409020546001600160a01b0316156115a15760405163119b4fd360e11b815260040160405180910390fd5b600081815260086020908152604080832080546001600160a01b0319166001600160a01b0387169081179091558084526009835290832080546001818101835582865293852001859055925290546115f99190611bd0565b6000828152600a602052604080822092909255905182916001600160a01b038516917fddf252ad1be2c89b69c2b068fc378daa952ba7f163c4a11628f55a4df523b3ef908290a45050565b60008072184f03e93ff9f4daa797ed6e38ed64bf6a1f0160401b83106116835772184f03e93ff9f4daa797ed6e38ed64bf6a1f0160401b830492506040015b6d04ee2d6d415b85acef810000000083106116af576d04ee2d6d415b85acef8100000000830492506020015b662386f26fc1000083106116cd57662386f26fc10000830492506010015b6305f5e10083106116e5576305f5e100830492506008015b61271083106116f957612710830492506004015b6064831061170b576064830492506002015b600a83106106355760010192915050565b60005b8381101561173757818101518382015260200161171f565b50506000910152565b602081526000825180602084015261175f81604085016020870161171c565b601f01601f19169190910160400192915050565b60006020828403121561178557600080fd5b5035919050565b80356001600160a01b0381168114610bf857600080fd5b600080604083850312156117b657600080fd5b6117bf8361178c565b946020939093013593505050565b634e487b7160e01b600052604160045260246000fd5b600082601f8301126117f457600080fd5b813567ffffffffffffffff8082111561180f5761180f6117cd565b604051601f8301601f19908116603f01168101908282118183101715611837576118376117cd565b8160405283815286602085880101111561185057600080fd5b836020870160208301376000602085830101528094505050505092915050565b60006020828403121561188257600080fd5b813567ffffffffffffffff81111561189957600080fd5b6118a5848285016117e3565b949350505050565b6000806000606084860312156118c257600080fd5b6118cb8461178c565b92506118d96020850161178c565b9150604084013590509250925092565b600080604083850312156118fc57600080fd5b823567ffffffffffffffff8082111561191457600080fd5b611920868387016117e3565b9350602085013591508082111561193657600080fd5b50611943858286016117e3565b9150509250929050565b6000806040838503121561196057600080fd5b6119698361178c565b91506020830135801515811461197e57600080fd5b809150509250929050565b60006020828403121561199b57600080fd5b610c838261178c565b6000806000806000608086880312156119bc57600080fd5b6119c58661178c565b94506119d36020870161178c565b935060408601359250606086013567ffffffffffffffff808211156119f757600080fd5b818801915088601f830112611a0b57600080fd5b813581811115611a1a57600080fd5b896020828501011115611a2c57600080fd5b9699959850939650602001949392505050565b60008060408385031215611a5257600080fd5b611a5b8361178c565b9150611a696020840161178c565b90509250929050565b600181811c90821680611a8657607f821691505b602082108103611aa657634e487b7160e01b600052602260045260246000fd5b50919050565b601f8211156109f957600081815260208120601f850160051c81016020861015611ad35750805b601f850160051c820191505b81811015611af257828155600101611adf565b505050505050565b815167ffffffffffffffff811115611b1457611b146117cd565b611b2881611b228454611a72565b84611aac565b602080601f831160018114611b5d5760008415611b455750858301515b600019600386901b1c1916600185901b178555611af2565b600085815260208120601f198616915b82811015611b8c57888601518255948401946001909101908401611b6d565b5085821015611baa5787850151600019600388901b60f8161c191681555b5050505050600190811b01905550565b634e487b7160e01b600052601160045260246000fd5b8181038181111561063557610635611bba565b634e487b7160e01b600052603260045260246000fd5b634e487b7160e01b600052603160045260246000fd5b600060208284031215611c2157600080fd5b81516001600160e01b031981168114610c8357600080fd5b6001600160a01b038681168252851660208201526040810184905260806060820181905281018290526000828460a0840137600060a0848401015260a0601f19601f85011683010190509695505050505050565b6000808454611c9b81611a72565b60018281168015611cb35760018114611cc857611cf7565b60ff1984168752821515830287019450611cf7565b8860005260208060002060005b85811015611cee5781548a820152908401908201611cd5565b50505082870194505b505050508351611d0b81836020880161171c565b01949350505050565b727b226e616d65223a202250616e646f7261202360681b81528151600090611d4381601385016020870161171c565b9190910160130192915050565b60008251611d6281846020870161171c565b7f222c226465736372697074696f6e223a224120636f6c6c656374696f6e206f669201918252507f2031302c303030205265706c6963616e747320656e61626c656420627920455260208201527f433430342c20616e206578706572696d656e74616c20746f6b656e207374616e60408201527f646172642e222c2265787465726e616c5f75726c223a2268747470733a2f2f7060608201527f616e646f72612e6275696c64222c22696d616765223a220000000000000000006080820152609701919050565b60008351611e3b81846020880161171c565b835190830190611d0b81836020880161171c565b7f222c2261747472696275746573223a5b7b2274726169745f74797065223a224381526e37b637b91116113b30b63ab2911d1160891b602082015260008251611e9f81602f85016020870161171c565b91909101602f0192915050565b7f646174613a6170706c69636174696f6e2f6a736f6e3b757466382c0000000000815260008251611ee481601b85016020870161171c565b91909101601b0192915050565b600181815b80851115611f2c578160001904821115611f1257611f12611bba565b80851615611f1f57918102915b93841c9390800290611ef6565b509250929050565b600082611f4357506001610635565b81611f5057506000610635565b8160018114611f665760028114611f7057611f8c565b6001915050610635565b60ff841115611f8157611f81611bba565b50506001821b610635565b5060208310610133831016604e8410600b8410161715611faf575081810a610635565b611fb98383611ef1565b8060001904821115611fcd57611fcd611bba565b029392505050565b6000610c8360ff841683611f34565b60008261200157634e487b7160e01b600052601260045260246000fd5b500490565b60006001820161201857612018611bba565b506001019056fea264697066735822122079515ff3ff1c74fdc97b3a2729e0a544ef0bc7617cc1a8883afd21c8f657434764736f6c63430008110033",
  "devdoc": {
    "kind": "dev",
    "methods": {
      "approve(address,uint256)": {
        "details": "This function assumes id / native if amount less than or equal to current max id"
      },
      "transferFrom(address,address,uint256)": {
        "details": "This function assumes id / native if amount less than or equal to current max id"
      }
    },
    "version": 1
  },
  "userdoc": {
    "kind": "user",
    "methods": {
      "approve(address,uint256)": {
        "notice": "Function for token approvals"
      },
      "ownerOf(uint256)": {
        "notice": "Function to find owner of a given native token"
      },
      "safeTransferFrom(address,address,uint256)": {
        "notice": "Function for native transfers with contract support"
      },
      "safeTransferFrom(address,address,uint256,bytes)": {
        "notice": "Function for native transfers with contract support and callback data"
      },
      "setApprovalForAll(address,bool)": {
        "notice": "Function native approvals"
      },
      "setWhitelist(address,bool)": {
        "notice": "Initialization function to set pairs / etc         saving gas by avoiding mint / burn on unnecessary targets"
      },
      "tokenURI(uint256)": {
        "notice": "tokenURI must be implemented by child contract"
      },
      "transfer(address,uint256)": {
        "notice": "Function for fractional transfers"
      },
      "transferFrom(address,address,uint256)": {
        "notice": "Function for mixed transfers"
      }
    },
    "version": 1
  },
  "storageLayout": {
    "storage": [
      {
        "astId": 1402,
        "contract": "contracts/erc404/Pandora.sol:Pandora",
        "label": "owner",
        "offset": 0,
        "slot": "0",
        "type": "t_address"
      },
      {
        "astId": 1568,
        "contract": "contracts/erc404/Pandora.sol:Pandora",
        "label": "name",
        "offset": 0,
        "slot": "1",
        "type": "t_string_storage"
      },
      {
        "astId": 1571,
        "contract": "contracts/erc404/Pandora.sol:Pandora",
        "label": "symbol",
        "offset": 0,
        "slot": "2",
        "type": "t_string_storage"
      },
      {
        "astId": 1580,
        "contract": "contracts/erc404/Pandora.sol:Pandora",
        "label": "minted",
        "offset": 0,
        "slot": "3",
        "type": "t_uint256"
      },
      {
        "astId": 1585,
        "contract": "contracts/erc404/Pandora.sol:Pandora",
        "label": "balanceOf",
        "offset": 0,
        "slot": "4",
        "type": "t_mapping(t_address,t_uint256)"
      },
      {
        "astId": 1592,
        "contract": "contracts/erc404/Pandora.sol:Pandora",
        "label": "allowance",
        "offset": 0,
        "slot": "5",
        "type": "t_mapping(t_address,t_mapping(t_address,t_uint256))"
      },
      {
        "astId": 1597,
        "contract": "contracts/erc404/Pandora.sol:Pandora",
        "label": "getApproved",
        "offset": 0,
        "slot": "6",
        "type": "t_mapping(t_uint256,t_address)"
      },
      {
        "astId": 1604,
        "contract": "contracts/erc404/Pandora.sol:Pandora",
        "label": "isApprovedForAll",
        "offset": 0,
        "slot": "7",
        "type": "t_mapping(t_address,t_mapping(t_address,t_bool))"
      },
      {
        "astId": 1609,
        "contract": "contracts/erc404/Pandora.sol:Pandora",
        "label": "_ownerOf",
        "offset": 0,
        "slot": "8",
        "type": "t_mapping(t_uint256,t_address)"
      },
      {
        "astId": 1615,
        "contract": "contracts/erc404/Pandora.sol:Pandora",
        "label": "_owned",
        "offset": 0,
        "slot": "9",
        "type": "t_mapping(t_address,t_array(t_uint256)dyn_storage)"
      },
      {
        "astId": 1620,
        "contract": "contracts/erc404/Pandora.sol:Pandora",
        "label": "_ownedIndex",
        "offset": 0,
        "slot": "10",
        "type": "t_mapping(t_uint256,t_uint256)"
      },
      {
        "astId": 1625,
        "contract": "contracts/erc404/Pandora.sol:Pandora",
        "label": "whitelist",
        "offset": 0,
        "slot": "11",
        "type": "t_mapping(t_address,t_bool)"
      },
      {
        "astId": 2396,
        "contract": "contracts/erc404/Pandora.sol:Pandora",
        "label": "dataURI",
        "offset": 0,
        "slot": "12",
        "type": "t_string_storage"
      },
      {
        "astId": 2398,
        "contract": "contracts/erc404/Pandora.sol:Pandora",
        "label": "baseTokenURI",
        "offset": 0,
        "slot": "13",
        "type": "t_string_storage"
      }
    ],
    "types": {
      "t_address": {
        "encoding": "inplace",
        "label": "address",
        "numberOfBytes": "20"
      },
      "t_array(t_uint256)dyn_storage": {
        "base": "t_uint256",
        "encoding": "dynamic_array",
        "label": "uint256[]",
        "numberOfBytes": "32"
      },
      "t_bool": {
        "encoding": "inplace",
        "label": "bool",
        "numberOfBytes": "1"
      },
      "t_mapping(t_address,t_array(t_uint256)dyn_storage)": {
        "encoding": "mapping",
        "key": "t_address",
        "label": "mapping(address => uint256[])",
        "numberOfBytes": "32",
        "value": "t_array(t_uint256)dyn_storage"
      },
      "t_mapping(t_address,t_bool)": {
        "encoding": "mapping",
        "key": "t_address",
        "label": "mapping(address => bool)",
        "numberOfBytes": "32",
        "value": "t_bool"
      },
      "t_mapping(t_address,t_mapping(t_address,t_bool))": {
        "encoding": "mapping",
        "key": "t_address",
        "label": "mapping(address => mapping(address => bool))",
        "numberOfBytes": "32",
        "value": "t_mapping(t_address,t_bool)"
      },
      "t_mapping(t_address,t_mapping(t_address,t_uint256))": {
        "encoding": "mapping",
        "key": "t_address",
        "label": "mapping(address => mapping(address => uint256))",
        "numberOfBytes": "32",
        "value": "t_mapping(t_address,t_uint256)"
      },
      "t_mapping(t_address,t_uint256)": {
        "encoding": "mapping",
        "key": "t_address",
        "label": "mapping(address => uint256)",
        "numberOfBytes": "32",
        "value": "t_uint256"
      },
      "t_mapping(t_uint256,t_address)": {
        "encoding": "mapping",
        "key": "t_uint256",
        "label": "mapping(uint256 => address)",
        "numberOfBytes": "32",
        "value": "t_address"
      },
      "t_mapping(t_uint256,t_uint256)": {
        "encoding": "mapping",
        "key": "t_uint256",
        "label": "mapping(uint256 => uint256)",
        "numberOfBytes": "32",
        "value": "t_uint256"
      },
      "t_string_storage": {
        "encoding": "bytes",
        "label": "string",
        "numberOfBytes": "32"
      },
      "t_uint256": {
        "encoding": "inplace",
        "label": "uint256",
        "numberOfBytes": "32"
      }
    }
  }
}